S00E00005461736B5F312E73726563F3
S11300000C9496000C94A0000C94A0000C94A000F6
S11300100C94A0000C94A0000C94A0000C94A000DC
S11300200C94A0000C94A0000C94A0000C94A000CC
S11300300C94A0000C94A0000C94A0000C94A000BC
S11300400C94A0000C94A0000C94A0000C94A000AC
S11300500C94A0002F01480161017A0192019201E0
S113006092019201920192019201920192019201F4
S113007092019201920192019201920192019201E4
S113008092019201920192019201920192019201D4
S1130090920192012F01480161017A019E01A001A0
S11300A0A201A401A501A501A501A501A501A50120
S11300B0A501A501A501A501A501A501A501A5010C
S11300C0A501A501A501A501A501A501A501A501FC
S11300D0A501A501A501A501A501A5019E01A001F8
S11300E0A201A401B101B301B501B701B801B8017E
S11300F0B801B801B801B801B801B801B801B80134
S1130100B801B801B801B801B801B801B801B80123
S1130110B801B801B801B801B801B801B801B80113
S1130120B801B801B101B301B501B70111241FBE73
S1130130CFE5D8E0DEBFCDBF0E941C010C94BF0107
S11301400C94000081E40E94AE0008954AEF50E050
S113015060E070E081E40E94B900F8CFCF93C82F2B
S11301606FEF0E94930160E08C2F0E94A601CF9153
S113017008950F931F93CF93DF93C82FD0E008E027
S113018017E06FEF6D0F40E08C2F0E94230141E0D8
S11301906D2F8C2F0E942301602F6D1B40E08C2F4C
S11301A00E942301612F6D1B41E08C2F0E942301CB
S11301B083E294EF0197F1F700C00000DF5FD430D1
S11301C001F740E063E08C2F0E94230140E063E0EC
S11301D08C2F0E942301D3E006E017E061E06D0F4D
S11301E040E08C2F0E942301602F6D1B40E08C2F78
S11301F00E94230141E06D2F8C2F0E942301612F67
S11302006D1B41E08C2F0E94230183E294EF019740
S1130210F1F700C00000D15008F740E060E08C2FF7
S11302200E94230140E067E08C2F0E942301DF91AC
S1130230CF911F910F9108950E94A2000E94A600E1
S113024080E090E0089590E0FC01E154F109E4328B
S1130250F10508F067C0E65DFF4F0C94B901442333
S113026059F02BB381E090E002C0880F991F6A9582
S1130270E2F7822B8BBB08952BB381E090E002C0A0
S1130280880F991F6A95E2F7809582238BBB0895A6
S1130290442359F028B381E090E002C0880F991FED
S11302A06A95E2F7822B88BB089528B381E090E039
S11302B002C0880F991F6A95E2F78095822388BB54
S11302C00895442359F025B381E090E002C0880FDB
S11302D0991F6A95E2F7822B85BB089525B381E0C7
S11302E090E002C0880F991F6A95E2F780958223F7
S11302F085BB0895442359F022B381E090E002C005
S1130300880F991F6A95E2F7822B82BB089522B366
S113031081E090E002C0880F991F6A95E2F780950A
S1130320822382BB089590E0FC01E154F109E43298
S1130330F10558F4E25BFF4F0C94B9016ABB0895D0
S113034067BB089564BB089561BB089590E0FC0108
S1130350E154F109E432F10558F4EE58FF4F0C94DE
S1130360B9016BBB089568BB089568BB089562BB6F
S11303700895EE0FFF1F0590F491E02D0994F89471
S1050380FFCFA9
S9030000FC
