:020000040800F2
:10000000041000201D000008110000081100000865
:1000100080B500AF00F002F800BF80BD80B584B0AD
:1000200000AF164A164BD31AFB60164BBB60144B3D
:100030007B6007E0BA68531CBB607B68591C796021
:1000400012781A70FB685A1EFA60002BF2D10E4A21
:100050000E4BD31A3B600D4B7B6004E07B685A1C4F
:100060007A6000221A703B685A1E3A60002BF5D164
:1000700000F0C2F800BF1037BD4680BD0000002070
:10008000000000208802000804000020000000207A
:1000900080B500AF0D21002000F044F800BF80BD06
:1000A00080B500AF024800F021F800BF80BD00BF5E
:1000B00080841E0080B500AF0D21012000F032F8D1
:1000C00000BF80BD80B582B000AF002000F056F8C0
:1000D0000346002B02D00123FB7101E00023FB71DA
:1000E000FB7918460837BD4680BD00BF80B483B099
:1000F00000AF786002E07B68013B7B607B68002B8F
:10010000F9D100BF00BF0C37BD4680BC704780B43A
:1001100000AF034B1B68DBB21846BD4680BC70477E
:100120000808014080B483B000AF03460A46FB7163
:100130001346BB71FB79012B0AD10F4B1B68BA79AF
:10014000012101FA02F211460B4A0B4313600DE044
:10015000FB79002B0AD1084B1B68BA79012101FAFF
:1001600002F2D2431146044A0B40136000BF0C3721
:10017000BD4680BC704700BF0C08014080B483B00E
:1001800000AF0346FB71074B1A68FB7922FA03F3B1
:10019000DBB203F00103DBB218460C37BD4680BC6E
:1001A000704700BF0808014080B400AF0F4B1B68C8
:1001B0000E4A43F0040313600D4B1B680C4A23F4F2
:1001C000700313600A4B0A4A1B681360094B1B68D3
:1001D000084A23F470031360064B1B68054A43F07A
:1001E0002233136000BFBD4680BC70471810024028
:1001F000000801400408014080B500AFFFF7D4FFBC
:10020000FFF758FF00F026F803461A460F4B1A7006
:100210000E4B1B78184600F024F803461A460C4B88
:100220001A700B4B1B78012BECD1FFF731FFFFF756
:1002300037FFFFF73FFF00BF00F00CF803461846FA
:1002400000F00FF80346012BF6D0DBE7000000209A
:100250000100002080B500AFFFF759FF03461846A4
:1002600080BD80B485B000AF0346FB71FB79132BD2
:1002700002D80023FB7301E00123FB73FB7B1846CC
:080280001437BD4680BC704735
:0400000508000010DF
:00000001FF
