S00E00005461736B5F312E73726563F3
S11300000C9496000C94A0000C94A0000C94A000F6
S11300100C94A0000C94A0000C94A0000C94A000DC
S11300200C94A0000C94A0000C94A0000C94A000CC
S11300300C94A0000C94A0000C94A0000C94A000BC
S11300400C94A0000C94A0000C94A0000C94A000AC
S11300500C94A000EF00080121013A015201520161
S113006052015201520152015201520152015201F4
S113007052015201520152015201520152015201E4
S113008052015201520152015201520152015201D4
S113009052015201EF00080121013A015E016001A1
S11300A06201640165016501650165016501650120
S11300B0650165016501650165016501650165010C
S11300C065016501650165016501650165016501FC
S11300D06501650165016501650165015E016001F8
S11300E0620164017101730175017701780178017E
S11300F07801780178017801780178017801780134
S11301007801780178017801780178017801780123
S11301107801780178017801780178017801780113
S113012078017801710173017501770111241FBEF3
S1130130CFE5D8E0DEBFCDBF0E94DC000C947F0188
S11301400C94000081E40E94AE0008954AEF50E050
S113015060E070E081E40E94B900F8CFCF93C82F2B
S11301606FEF0E94530160E08C2F0E946601CF91D3
S11301700895CF93DF93D82FC0E041E06C2F8D2FEB
S11301800E94E30083E294EF0197F1F700C00000BE
S1130190CF5FC83091F7C7E040E06C2F8D2F0E94ED
S11301A0E30083E294EF0197F1F700C00000C1502F
S11301B098F7DF91CF9108950E94A2000E94A600B3
S11301C080E090E0089590E0FC01E154F109E4320C
S11301D0F10508F067C0E65DFF4F0C9479014423F4
S11301E059F02BB381E090E002C0880F991F6A9503
S11301F0E2F7822B8BBB08952BB381E090E002C021
S1130200880F991F6A95E2F7809582238BBB089526
S1130210442359F028B381E090E002C0880F991F6D
S11302206A95E2F7822B88BB089528B381E090E0B9
S113023002C0880F991F6A95E2F78095822388BBD4
S11302400895442359F025B381E090E002C0880F5B
S1130250991F6A95E2F7822B85BB089525B381E047
S113026090E002C0880F991F6A95E2F78095822377
S113027085BB0895442359F022B381E090E002C085
S1130280880F991F6A95E2F7822B82BB089522B3E7
S113029081E090E002C0880F991F6A95E2F780958B
S11302A0822382BB089590E0FC01E154F109E43219
S11302B0F10558F4E25BFF4F0C9479016ABB089591
S11302C067BB089564BB089561BB089590E0FC0189
S11302D0E154F109E432F10558F4EE58FF4F0C945F
S11302E079016BBB089568BB089568BB089562BB30
S11302F00895EE0FFF1F0590F491E02D0994F894F2
S1050300FFCF29
S9030000FC
