:100000000C942A000C943F000C943F000C943F0089
:100010000C943F000C943F000C943F000C943F0064
:100020000C943F000C943F000C943F000C943F0054
:100030000C943F000C943F000C943F000C943F0044
:100040000C943F000C943F000C943F000C943F0034
:100050000C943F0011241FBECFE5D8E0DEBFCDBF1A
:1000600010E0A0E6B0E0ECEEF3E002C005900D92E7
:10007000AC36B107D9F70E94CD000C94F4010C9472
:100080000000809161000E946D00809161000E94DB
:100090007300809160000E946D00809160000E945A
:1000A00073000895DDECC0E06C2F809161000E9428
:1000B0009B00CD9F612D1124669566956695809174
:1000C00060000E949B008FE493EC0197F1F700C061
:1000D0000000CF5FC43641F7E6CF86956FEF83709F
:1000E0000E94D4010895CF93982F96959695969552
:1000F0009370C82FC295C695C77080FD0CC0CC0FF9
:10010000CC0FC92BC062CF7B8C2F0E94D4008C2FC8
:100110000E9454010EC08C2F880F880FC92FC37006
:10012000C82BC062C0648C2F0E94D4008C2F0E9408
:100130005401CF910895982F9695937080FD16C025
:100140008DEC689F812D1124869586958695880F64
:10015000282F220F220F820F681BE62FF0E0EE59A6
:10016000FF4F6081892F0E94E40108958DEC689F04
:10017000812D1124869586958695880F282F220F2C
:10018000220F820F681BE62FF0E0EE59FF4F6081CF
:100190006095892F0E94E40108950E9441000E9409
:1001A000520080E090E00895982F9695969597706C
:1001B000282F23702230F1F108F059C02130E9F0E6
:1001C00085FF0DC04AB321E030E0B90102C0660FDF
:1001D000771F9A95E2F7CB01842B8ABB08954AB327
:1001E00021E030E0B90102C0660F771F9A95E2F76F
:1001F000CB01809584238ABB089585FF0DC047B34A
:1002000021E030E0B90102C0660F771F9A95E2F74E
:10021000CB01842B87BB089547B321E030E0B901BF
:1002200002C0660F771F9A95E2F7CB018095842371
:1002300087BB089585FF0DC044B321E030E0B901CC
:1002400002C0660F771F9A95E2F7CB01842B84BB1F
:10025000089544B321E030E0B90102C0660F771F72
:100260009A95E2F7CB018095842384BB089585FF9E
:100270000DC041B321E030E0B90102C0660F771F25
:100280009A95E2F7CB01842B81BB089541B321E01D
:1002900030E0B90102C0660F771F9A95E2F7CB01F3
:1002A0008095842381BB0895982F96959695977095
:1002B000282F23702230F1F108F059C02130E9F0E5
:1002C00086FF0DC04BB321E030E0B90102C0660FDC
:1002D000771F9A95E2F7CB01842B8BBB08954BB324
:1002E00021E030E0B90102C0660F771F9A95E2F76E
:1002F000CB01809584238BBB089586FF0DC048B346
:1003000021E030E0B90102C0660F771F9A95E2F74D
:10031000CB01842B88BB089548B321E030E0B901BC
:1003200002C0660F771F9A95E2F7CB018095842370
:1003300088BB089586FF0DC045B321E030E0B901C8
:1003400002C0660F771F9A95E2F7CB01842B85BB1D
:10035000089545B321E030E0B90102C0660F771F70
:100360009A95E2F7CB018095842385BB089586FF9B
:100370000DC042B321E030E0B90102C0660F771F23
:100380009A95E2F7CB01842B82BB089542B321E01A
:1003900030E0B90102C0660F771F9A95E2F7CB01F2
:1003A0008095842382BB0895813041F028F082300B
:1003B00039F0833039F008956ABB089567BB08951A
:1003C00064BB089561BB0895813041F028F082300C
:1003D00039F0833039F008956BBB089568BB0895F8
:0C03E00068BB089562BB0895F894FFCF3D
:0C03EC00E8EE3F065B4F666D7D077F6FFB
:00000001FF
