:100000000C942A000C943F000C943F000C943F0089
:100010000C943F000C943F000C943F000C943F0064
:100020000C943F000C943F000C943F000C943F0054
:100030000C943F000C943F000C943F000C943F0044
:100040000C943F000C943F000C943F000C943F0034
:100050000C943F0011241FBECFE5D8E0DEBFCDBF1A
:1000600010E0A0E6B0E0E8E9F4E002C005900D92EF
:10007000AE36B107D9F70E9423010C944A020C94C2
:100080000000809162000E949B00809161000E94AC
:100090009B00809161000E94A100809160000E94FD
:1000A00097000895F12C0F2EFDECEF2EF02DFE9C05
:1000B000012D1124102F169516951695110F812FCD
:1000C000880F880F180F8F2D811B182F0695069506
:1000D0000695C0E0D0E0612F809162000E94F1009F
:1000E000809162000E94A1008FE19EE40197F1F7E8
:1000F00000C00000809162000E94C900602F8091C2
:1001000061000E94F100809161000E94A1008FE1D6
:100110009EE40197F1F700C00000809161000E9409
:10012000C9002196C932D105B1F6F394C0CF8F71C1
:100130000E942A01089586956FEF83700E942A021B
:100140000895CF93982F9695969596959370C82F6E
:10015000C295C695C77080FD0CC0CC0FCC0FC92BC3
:10016000C062CF7B8C2F0E942A018C2F0E94AA0193
:100170000EC08C2F880F880FC92FC370C82BC06288
:10018000C0648C2F0E942A018C2F0E94AA01CF915B
:100190000895CF93982F9695969596959370C82F1E
:1001A000C295C695C77080FD0CC0CC0FCC0FC92B73
:1001B000C062C0648C2F0E942A018C2F0E94AA0169
:1001C0000EC08C2F880F880FC92FC370C82BC06238
:1001D000CF7B8C2F0E942A018C2F0E94AA01CF91E5
:1001E0000895982F9695937080FD16C08DEC689FAA
:1001F000812D1124869586958695880F282F220FAC
:10020000220F820F681BE62FF0E0ED59FF4F60814F
:10021000892F0E943A0208958DEC689F812D112448
:10022000869586958695880F282F220F220F820F9C
:10023000681BE62FF0E0ED59FF4F60816095892F34
:100240000E943A0208950E9441000E94520080E0FC
:1002500090E00895982F969596959770282F237083
:100260002230F1F108F059C02130E9F085FF0DC0CE
:100270004AB321E030E0B90102C0660F771F9A95BA
:10028000E2F7CB01842B8ABB08954AB321E030E02A
:10029000B90102C0660F771F9A95E2F7CB018095EE
:1002A00084238ABB089585FF0DC047B321E030E069
:1002B000B90102C0660F771F9A95E2F7CB01842B34
:1002C00087BB089547B321E030E0B90102C0660F53
:1002D000771F9A95E2F7CB018095842387BB089519
:1002E00085FF0DC044B321E030E0B90102C0660FC4
:1002F000771F9A95E2F7CB01842B84BB089544B312
:1003000021E030E0B90102C0660F771F9A95E2F74D
:10031000CB018095842384BB089585FF0DC041B334
:1003200021E030E0B90102C0660F771F9A95E2F72D
:10033000CB01842B81BB089541B321E030E0B901AA
:1003400002C0660F771F9A95E2F7CB018095842350
:1003500081BB0895982F969596959770282F2370B6
:100360002230F1F108F059C02130E9F086FF0DC0CC
:100370004BB321E030E0B90102C0660F771F9A95B8
:10038000E2F7CB01842B8BBB08954BB321E030E027
:10039000B90102C0660F771F9A95E2F7CB018095ED
:1003A00084238BBB089586FF0DC048B321E030E065
:1003B000B90102C0660F771F9A95E2F7CB01842B33
:1003C00088BB089548B321E030E0B90102C0660F50
:1003D000771F9A95E2F7CB018095842388BB089517
:1003E00086FF0DC045B321E030E0B90102C0660FC1
:1003F000771F9A95E2F7CB01842B85BB089545B30F
:1004000021E030E0B90102C0660F771F9A95E2F74C
:10041000CB018095842385BB089586FF0DC042B330
:1004200021E030E0B90102C0660F771F9A95E2F72C
:10043000CB01842B82BB089542B321E030E0B901A7
:1004400002C0660F771F9A95E2F7CB01809584234F
:1004500082BB0895813041F028F0823039F083303A
:1004600039F008956ABB089567BB089564BB089589
:1004700061BB0895813041F028F0823039F083303B
:1004800039F008956BBB089568BB089565BB089566
:0804900062BB0895F894FFCF50
:0E04980002CEEE00010203040506070809006B
:00000001FF
