S00D00004C61625F332E7372656376
S11300000C942A000C9434000C944C000C9434008E
S11300100C9434000C9434000C9434000C9434008C
S11300200C9434000C9434000C9434000C9434007C
S11300300C9434000C9434000C9434000C9434006C
S11300400C9434000C9434000C9434000C9434005C
S11300500C94340011241FBECFE5D8E0DEBFCDBF21
S11300600E9447000C946E000C94000081B3877FBB
S113007081BB87B3816087BB089585B78C6085BFDA
S11300808FB780688FBF8BB780688BBF08950E943D
S113009036000E943D00FFCF1F920F920FB60F92C1
S11300A011242F933F938F939F9398B381E09827C4
S11300B098BB2FE33DE093E0215030409040E1F7BE
S11300C000C0000098B3892788BB9F918F913F910E
S11300D02F910F900FBE0F901F901895F894FFCF9B
S9030000FC
