S00D00004C61625F332E7372656376
S11300000C942A000C9464000C9486000C94A800B0
S11300100C9434000C9434000C9434000C9434008C
S11300200C9434000C9434000C9434000C9434007C
S11300300C9434000C9434000C9434000C9434006C
S11300400C9434000C9434000C9434000C9434005C
S11300500C94340011241FBECFE5D8E0DEBFCDBF21
S11300600E945F000C94CA000C94000081B38B7F43
S113007081BB81B3877F81BB87B38B7F87BB8AB307
S113008081608ABB8AB382608ABB8AB384608ABB7C
S1130090089585B7816085BF85B78C6085BF84B7B7
S11300A08F7B84BF8FB780688FBF8BB780648BBF13
S11300B08BB780688BBF8BB780628BBF08950E941B
S11300C036000E944900FFCF1F920F920FB60F9285
S11300D011242F933F938F939F939BB381E0982791
S11300E09BBB2FE33DE093E0215030409040E1F78B
S11300F000C000009BB389278BBB9F918F913F91D8
S11301002F910F900FBE0F901F9018951F920F9272
S11301100FB60F9211242F933F938F939F939BB30A
S113012082E098279BBB2FE33DE093E021503040D1
S11301309040E1F700C000009BB389278BBB9F91DF
S11301408F913F912F910F900FBE0F901F90189594
S11301501F920F920FB60F9211242F933F938F93F8
S11301609F939BB384E098279BBB2FE33DE093E0F0
S1130170215030409040E1F700C000009BB3892734
S11301808BBB9F918F913F912F910F900FBE0F903A
S10B01901F901895F894FFCFAD
S9030000FC
