S00E00005461736B5F312E73726563F3
S11300000C9496000C94A0000C94A0000C94A000F6
S11300100C94A0000C94A0000C94A0000C94A000DC
S11300200C94A0000C94A0000C94A0000C94A000CC
S11300300C94A0000C94A0000C94A0000C94A000BC
S11300400C94A0000C94A0000C94A0000C94A000AC
S11300500C94A00004011D0136014F0167016701E2
S1130060670167016701670167016701670167014C
S1130070670167016701670167016701670167013C
S1130080670167016701670167016701670167012C
S11300906701670104011D0136014F0173017501F8
S11300A0770179017A017A017A017A017A017A0178
S11300B07A017A017A017A017A017A017A017A0164
S11300C07A017A017A017A017A017A017A017A0154
S11300D07A017A017A017A017A017A017301750150
S11300E077017901860188018A018C018D018D01D6
S11300F08D018D018D018D018D018D018D018D018C
S11301008D018D018D018D018D018D018D018D017B
S11301108D018D018D018D018D018D018D018D016B
S11301208D018D01860188018A018C0111241FBE75
S1130130CFE5D8E0DEBFCDBF0E94F1000C9494015E
S11301400C94000081E40E94AE0008954AEF50E050
S113015060E070E081E40E94B900F8CFCF93C82F2B
S11301606FEF0E94680160E08C2F0E947B01CF91A9
S11301700895CF93DF93D82FC0E06FEF6C0F40E06A
S11301808D2F0E94F80041E06C2F8D2F0E94F80003
S113019083E294EF0197F1F700C00000CF5FC7300E
S11301A061F740E066E08D2F0E94F80061E06C0F7B
S11301B040E08D2F0E94F80041E06C2F8D2F0E94AB
S11301C0F80083E294EF0197F1F700C00000C150FA
S11301D069F740E061E08D2F0E94F800DF91CF9134
S11301E008950E94A2000E94A60080E090E0089575
S11301F090E0FC01E154F109E432F10508F067C034
S1130200E65DFF4F0C948E01442359F02BB381E03B
S113021090E002C0880F991F6A95E2F7822B8BBB8E
S113022008952BB381E090E002C0880F991F6A956E
S1130230E2F7809582238BBB0895442359F028B3B9
S113024081E090E002C0880F991F6A95E2F7822B43
S113025088BB089528B381E090E002C0880F991FFD
S11302606A95E2F78095822388BB0895442359F068
S113027025B381E090E002C0880F991F6A95E2F7E8
S1130280822B85BB089525B381E090E002C0880FDE
S1130290991F6A95E2F78095822385BB08954423CC
S11302A059F022B381E090E002C0880F991F6A954B
S11302B0E2F7822B82BB089522B381E090E002C072
S11302C0880F991F6A95E2F78095822382BB08956F
S11302D090E0FC01E154F109E432F10558F4E25BE9
S11302E0FF4F0C948E016ABB089567BB089564BBED
S11302F0089561BB089590E0FC01E154F109E432F2
S1130300F10558F4EE58FF4F0C948E016BBB089521
S113031068BB089568BB089562BB0895EE0FFF1F84
S10F03200590F491E02D0994F894FFCFAF
S9030000FC
