:020000040800F2
:1000000000500020C10100080D0200080D02000888
:100010000D0200080D0200080D020008000000009B
:100020000000000000000000000000000D020008B9
:100030000D020008000000000D0200080D0200087B
:100040000D0200080D0200080D0200080D02000854
:100050000D0200080D0200080D0200080D02000844
:100060000D0200080D0200080D0200080D02000834
:100070000D0200080D0200080D0200080D02000824
:100080000D0200080D0200080D0200080D02000814
:100090000D0200080D0200080D0200080D02000804
:1000A0000D0200080D0200080D0200080D020008F4
:1000B0000D0200080D0200080D0200080D020008E4
:1000C0000D0200080D0200080D0200080D020008D4
:1000D0000D0200080D0200080D0200080D020008C4
:1000E0000D0200080D020008000000000D020008CB
:1000F0000D0200080D0200080D0200080D020008A4
:100100000D0200080D0200080D0200080D02000893
:100110000D0200080D0200080D0200080D02000883
:100120000D0200080D0200080D0200080D02000873
:100130001002000800000020000000200000002045
:100140000000002080B483B000AF1A4B1B68194A2E
:1001500043F008031360184B1B68174A23F470031D
:100160001360154B1B68144A43F400131360134BC0
:100170001B68124A43F40053136000237B6002E0C3
:100180007B6801337B607B6841F287329342F7DD05
:100190000A4B1B68094A23F40053136000237B6059
:1001A00002E07B6801337B607B6841F287329342D7
:1001B000F7DDDCE718100240040C01400C0C014094
:1001C0000C488546AFF300800B480C490C4A0023CD
:1001D00002E0D458C4500433C4188C42F9D3094AFD
:1001E000094C002301E013600432A242FBD3FFF765
:1001F000A9FFFEE7005000200000002000000020C2
:10020000100200080000002000000020FEE70000AF
:04000005080001C12D
:00000001FF
