:020000040800F2
:1000000000500020AD010008F9010008F9010008C6
:10001000F9010008F9010008F901000800000000DA
:10002000000000000000000000000000F9010008CE
:10003000F901000800000000F9010008F9010008BA
:10004000F9010008F9010008F9010008F9010008A8
:10005000F9010008F9010008F9010008F901000898
:10006000F9010008F9010008F9010008F901000888
:10007000F9010008F9010008F9010008F901000878
:10008000F9010008F9010008F9010008F901000868
:10009000F9010008F9010008F9010008F901000858
:1000A000F9010008F9010008F9010008F901000848
:1000B000F9010008F9010008F9010008F901000838
:1000C000F9010008F9010008F9010008F901000828
:1000D000F9010008F9010008F9010008F901000818
:1000E000F9010008F901000800000000F90100080A
:1000F000F9010008F9010008F9010008F9010008F8
:10010000F9010008F9010008F9010008F9010008E7
:10011000F9010008F9010008F9010008F9010008D7
:10012000F9010008F9010008F9010008F9010008C7
:10013000FC0100080000002000000020000000205A
:100140000000002080B400AF134B1B68124A23F458
:1001500080331360104B1B680F4A43F4C0131360C5
:100160000D4B1B680C4A43F4205313600A4B1B6869
:10017000094A43F480631360084B1B68074A43F045
:1001800080731360044B1B68034A43F0020313603F
:1001900000BFBD4680BC7047041002400010024002
:1001A00080B500AFFFF7CEFFFEE700BF0C488546E5
:1001B000AFF300800B480C490C4A002302E0D458EE
:1001C000C4500433C4188C42F9D3094A094C0023A3
:1001D00001E013600432A242FBD3FFF7E1FFFEE728
:1001E000005000200000002000000020FC0100085A
:0C01F0000000002000000020FEE70000DE
:04000005080001AD41
:00000001FF
