:020000040800F2
:10000000100400201D000008110000081100000865
:1000100080B500AF00F002F800BF80BD80B584B0AD
:1000200000AF164A164BD31AFB60164BBB60144B3D
:100030007B6007E0BA68531CBB607B68591C796021
:1000400012781A70FB685A1EFA60002BF2D10E4A21
:100050000E4BD31A3B600D4B7B6004E07B685A1C4F
:100060007A6000221A703B685A1E3A60002BF5D164
:1000700000F00EF800BF1037BD4680BD050000201F
:10008000000000200B0100081004002008000020E0
:1000900080B483B000AF0023FB80174B20221A608E
:1000A0000023FB8004E0FB889BB201339BB2FB8002
:1000B000FB889BB2C72BF6D9104B1B680F4A43F045
:1000C000080313600E4B1B680D4A43F008031360CE
:1000D0000C4B1B680B4A83F0080313600023FB8062
:1000E00004E0FB889BB201339BB2FB80FB889BB290
:1000F000B3F5FA7FF5D3EBE708E10F400054024077
:0B0100001C550240FC530240040506A1
:05010B000102030000E9
:0400000508000010DF
:00000001FF
