:020000040800F2
:10000000101000201D000008110000081100000859
:1000100080B500AF00F002F800BF80BD80B584B0AD
:1000200000AF164A164BD31AFB60164BBB60144B3D
:100030007B6007E0BA68531CBB607B68591C796021
:1000400012781A70FB685A1EFA60002BF2D10E4A21
:100050000E4BD31A3B600D4B7B6004E07B685A1C4F
:100060007A6000221A703B685A1E3A60002BF5D164
:1000700000F00EF800BF1037BD4680BD050000201F
:1000800000000020EF000008100000200800002001
:1000900080B483B000AF124B1B68114A43F00403D5
:1000A0001360104B1B680F4A23F4700313600D4B51
:1000B0001B680C4A43F4001313600023FB800A4BB7
:1000C0001B68094A83F4005313600023FB8002E09D
:1000D000FB880133FB80FB88B3F5FA7FF8D3EEE7AA
:0F00E00018100240040801400C080140040506F6
:0500EF00010203000006
:0400000508000010DF
:00000001FF
