:100000000C942A000C9447000C9447000C94470071
:100010000C9447000C9447000C9447000C94470044
:100020000C9447000C9447000C9447000C94470034
:100030000C9447000C9447000C9447000C94470024
:100040000C9447000C9447000C9447000C94470014
:100050000C94470011241FBECFE5D8E0DEBFCDBF12
:1000600010E0A0E6B0E0EEE2F5E002C005900D92EF
:10007000A036B107D9F710E0A0E6B0E001C01D92AC
:10008000A036B107E1F70E9449000C9495020C9448
:10009000000081E461E041E00E945C0082E462E0F3
:1000A00041E00E945C0081E461E00E947E0182E602
:1000B00062E00E947E01F7CF843409F471C0853478
:1000C00048F4823499F1833408F04DC0813409F04A
:1000D00083C00FC0823651F1833620F4813609F097
:1000E0007BC007C0833609F43EC0843609F074C073
:1000F00057C0442369F02AB381E090E0AC0102C00C
:10010000440F551F6A95E2F7BA01622B6ABB089546
:100110002AB381E090E0AC0102C0440F551F6A95FC
:10012000E2F7BA01609562236ABB0895442369F03F
:1001300027B381E090E0AC0102C0440F551F6A95DF
:10014000E2F7BA01622B67BB089527B381E090E024
:10015000AC0102C0440F551F6A95E2F7BA016095E1
:10016000622367BB0895442369F024B381E090E0E3
:10017000AC0102C0440F551F6A95E2F7BA01622B29
:1001800064BB089524B381E090E0AC0102C0440F49
:10019000551F6A95E2F7BA016095622364BB089522
:1001A000442369F021B381E090E0AC0102C0440F28
:1001B000551F6A95E2F7BA01622B61BB089521B31E
:1001C00081E090E0AC0102C0440F551F6A95E2F750
:1001D000BA016095622361BB0895843409F471C04B
:1001E000853448F4823499F1833408F04DC0813469
:1001F00009F083C00FC0823651F1833620F4813676
:1002000009F07BC007C0833609F43EC0843609F08C
:1002100074C057C0442369F02BB381E090E0AC0177
:1002200002C0440F551F6A95E2F7BA01622B6BBBFF
:1002300008952BB381E090E0AC0102C0440F551F3C
:100240006A95E2F7BA01609562236BBB0895442377
:1002500069F028B381E090E0AC0102C0440F551F63
:100260006A95E2F7BA01622B68BB089528B381E072
:1002700090E0AC0102C0440F551F6A95E2F7BA0145
:100280006095622368BB0895442369F025B381E03B
:1002900090E0AC0102C0440F551F6A95E2F7BA0125
:1002A000622B65BB089525B381E090E0AC0102C0EC
:1002B000440F551F6A95E2F7BA016095622365BB4A
:1002C0000895442369F022B381E090E0AC0102C0BC
:1002D000440F551F6A95E2F7BA01622B62BB08957D
:1002E00022B381E090E0AC0102C0440F551F6A9533
:1002F000E2F7BA016095622362BB0895843409F481
:100300003DC0853440F48234F9F0833450F58134B3
:1003100009F040C00CC08236B9F0833618F481363B
:10032000C9F505C08336E9F08436A1F527C02BB3A3
:1003300081E090E0AC0102C0440F551F6A95E2F7DE
:10034000BA0162276BBB089528B381E090E0AC014D
:1003500002C0440F551F6A95E2F7BA01622768BBD5
:10036000089525B381E090E0AC0102C0440F551F11
:100370006A95E2F7BA01622765BB089522B381E06E
:1003800090E0AC0102C0440F551F6A95E2F7BA0134
:10039000622762BB08958434B1F1853438F4823425
:1003A000E1F0833428F58134C1F50CC08236A9F020
:1003B000833618F4813689F505C08336C9F0843652
:1003C00061F521C029B330E0C90102C09595879538
:1003D0006A95E2F7982F917020C026B330E0C901EA
:1003E00002C0959587956A95E2F7982F917015C090
:1003F00023B330E0C90102C0959587956A95E2F76D
:10040000982F91700AC020B330E0C90102C09595C1
:1004100087956A95E2F7982F9170892F0895843413
:10042000D9F0853438F4823499F0833498F48134E7
:10043000A1F40CC0823661F0833618F4813669F479
:1004400005C0833639F0843641F406C06ABB08958E
:1004500067BB089564BB089561BB08958434D9F0E7
:10046000853438F4823499F0833498F48134A1F4DB
:100470000CC0823661F0833618F4813669F405C009
:10048000833639F0843641F406C06BBB089568BBEF
:10049000089568BB089562BB08958434D9F085340B
:1004A00038F4823499F0833498F48134A1F40CC088
:1004B000823661F0833618F4813669F405C08336DC
:1004C00039F0843641F406C099B305C096B303C031
:1004D00093B301C090B3892F90E00895843409F15B
:1004E000853438F48234A9F08334B8F48134E1F4EB
:1004F0000CC0823671F0833618F48136A9F405C039
:10050000833659F0843681F40CC08BB380958BBB55
:10051000089588B3809588BB089585B3809585BB81
:0E052000089582B3809582BB0895F894FFCFB2
:00000001FF
