S00E00007461736B5F322E73726563D2
S11300000C942A000C943F000C943F000C943F0085
S11300100C943F000C943F000C943F000C943F0060
S11300200C943F000C943F000C943F000C943F0050
S11300300C943F000C943F000C943F000C943F0040
S11300400C943F000C943F000C943F000C943F0030
S11300500C943F0011241FBECFE5D8E0DEBFCDBF16
S113006010E0A0E6B0E0EAE4F5E002C005900D92ED
S1130070AE36B107D9F70E944E010C94A3020C943A
S11300800000809162000E94C600809161000E947D
S1130090C600809161000E94CC00809160000E94A3
S11300A09D00089510E0D0E00DECEE24E394F12CD3
S11300B0D09FC12D1124C695C695C6959C2F990F26
S11300C0892F880F880F890F6D2F681B809162001C
S11300D00E941C01809162000E94CC008FE19EE48A
S11300E00197F1F700C00000809162000E94F400C3
S11300F06C2F809161000E941C01809161000E941C
S1130100CC008FE19EE40197F1F700C000008091DC
S113011061000E94F400809160000E94A100882385
S113012021F0111102C0DF5F1E2D809160000E943A
S1130130A1008111BDCF1F2DBBCF8F710E9455012E
S11301400895CF93C82FCF7185FD0DC08C2F0E94C9
S113015055028823A9F08C2F0E94550291E081302A
S113016091F090E010C08C2F0E945502813051F024
S11301708C2F0E94550291E0882329F090E003C05F
S113018090E001C090E0892FCF91089586956FEF9C
S113019083700E9483020895CF93982F9695969525
S11301A096959370C82FC295C695C77080FD0CC0F4
S11301B0CC0FCC0FC92BC062CF7B8C2F0E94550172
S11301C08C2F0E94D5010EC08C2F880F880FC92F49
S11301D0C370C82BC062C0648C2F0E9455018C2F41
S11301E00E94D501CF910895CF93982F9695969517
S11301F096959370C82FC295C695C77080FD0CC0A4
S1130200CC0FCC0FC92BC062C0648C2F0E94550147
S11302108C2F0E94D5010EC08C2F880F880FC92FF8
S1130220C370C82BC062CF7B8C2F0E9455018C2FCA
S11302300E94D501CF910895982F9695937080FDD3
S113024016C08DEC689F812D112486958695869520
S1130250880F282F220F220F820F681BE62FF0E051
S1130260ED59FF4F6081892F0E94930208958DEC10
S1130270689F812D1124869586958695880F282F51
S1130280220F220F820F681BE62FF0E0ED59FF4F7B
S113029060816095892F0E94930208950E94410015
S11302A00E94520080E090E00895982F96959695CC
S11302B09770282F23702230F1F108F059C02130B3
S11302C0E9F085FF0DC04AB321E030E0B90102C076
S11302D0660F771F9A95E2F7CB01842B8ABB0895AA
S11302E04AB321E030E0B90102C0660F771F9A9546
S11302F0E2F7CB01809584238ABB089585FF0DC066
S113030047B321E030E0B90102C0660F771F9A9528
S1130310E2F7CB01842B87BB089547B321E030E09B
S1130320B90102C0660F771F9A95E2F7CB01809559
S1130330842387BB089585FF0DC044B321E030E0DA
S1130340B90102C0660F771F9A95E2F7CB01842B9F
S113035084BB089544B321E030E0B90102C0660FC4
S1130360771F9A95E2F7CB018095842384BB089587
S113037085FF0DC041B321E030E0B90102C0660F32
S1130380771F9A95E2F7CB01842B81BB089541B383
S113039021E030E0B90102C0660F771F9A95E2F7B9
S11303A0CB018095842381BB0895982F96959695CB
S11303B09770282F23702230F1F108F059C02130B2
S11303C0E9F086FF0DC04BB321E030E0B90102C073
S11303D0660F771F9A95E2F7CB01842B8BBB0895A8
S11303E04BB321E030E0B90102C0660F771F9A9544
S11303F0E2F7CB01809584238BBB089586FF0DC063
S113040048B321E030E0B90102C0660F771F9A9526
S1130410E2F7CB01842B88BB089548B321E030E098
S1130420B90102C0660F771F9A95E2F7CB01809558
S1130430842388BB089586FF0DC045B321E030E0D6
S1130440B90102C0660F771F9A95E2F7CB01842B9E
S113045085BB089545B321E030E0B90102C0660FC1
S1130460771F9A95E2F7CB018095842385BB089585
S113047086FF0DC042B321E030E0B90102C0660F2F
S1130480771F9A95E2F7CB01842B82BB089542B380
S113049021E030E0B90102C0660F771F9A95E2F7B8
S11304A0CB018095842382BB0895282F2695269519
S11304B0277083708230A9F0E8F4813049F089B361
S11304C090E002C0959587952A95E2F7817008958A
S11304D086B390E002C0959587952A95E2F78170DE
S11304E0089583B390E002C0959587952A95E2F725
S11304F08170089580B390E002C0959587952A9500
S1130500E2F781700895813041F028F0823039F0AB
S1130510833039F008956ABB089567BB089564BBBE
S1130520089561BB0895813041F028F0823039F09C
S1130530833039F008956BBB089568BB089565BB9B
S10D0540089562BB0895F894FFCFFC
S111054A02CEEE0001020304050607080900B4
S9030000FC
